{
  "_format": "hh3-artifact-1",
  "contractName": "BountyToken",
  "sourceName": "contracts/BountyToken.sol",
  "abi": [
    {
      "inputs": [
        {
          "internalType": "uint256",
          "name": "initialSupply",
          "type": "uint256"
        }
      ],
      "stateMutability": "nonpayable",
      "type": "constructor"
    },
    {
      "anonymous": false,
      "inputs": [
        {
          "indexed": true,
          "internalType": "address",
          "name": "owner",
          "type": "address"
        },
        {
          "indexed": true,
          "internalType": "address",
          "name": "spender",
          "type": "address"
        },
        {
          "indexed": false,
          "internalType": "uint256",
          "name": "value",
          "type": "uint256"
        }
      ],
      "name": "Approval",
      "type": "event"
    },
    {
      "anonymous": false,
      "inputs": [
        {
          "indexed": true,
          "internalType": "address",
          "name": "to",
          "type": "address"
        },
        {
          "indexed": false,
          "internalType": "uint256",
          "name": "amount",
          "type": "uint256"
        }
      ],
      "name": "Mint",
      "type": "event"
    },
    {
      "anonymous": false,
      "inputs": [
        {
          "indexed": true,
          "internalType": "address",
          "name": "from",
          "type": "address"
        },
        {
          "indexed": true,
          "internalType": "address",
          "name": "to",
          "type": "address"
        },
        {
          "indexed": false,
          "internalType": "uint256",
          "name": "value",
          "type": "uint256"
        }
      ],
      "name": "Transfer",
      "type": "event"
    },
    {
      "inputs": [
        {
          "internalType": "address[]",
          "name": "students",
          "type": "address[]"
        },
        {
          "internalType": "uint256",
          "name": "amount",
          "type": "uint256"
        }
      ],
      "name": "airdrop",
      "outputs": [],
      "stateMutability": "nonpayable",
      "type": "function"
    },
    {
      "inputs": [
        {
          "internalType": "address",
          "name": "",
          "type": "address"
        },
        {
          "internalType": "address",
          "name": "",
          "type": "address"
        }
      ],
      "name": "allowance",
      "outputs": [
        {
          "internalType": "uint256",
          "name": "",
          "type": "uint256"
        }
      ],
      "stateMutability": "view",
      "type": "function"
    },
    {
      "inputs": [
        {
          "internalType": "address",
          "name": "spender",
          "type": "address"
        },
        {
          "internalType": "uint256",
          "name": "amount",
          "type": "uint256"
        }
      ],
      "name": "approve",
      "outputs": [
        {
          "internalType": "bool",
          "name": "",
          "type": "bool"
        }
      ],
      "stateMutability": "nonpayable",
      "type": "function"
    },
    {
      "inputs": [
        {
          "internalType": "address",
          "name": "",
          "type": "address"
        }
      ],
      "name": "balanceOf",
      "outputs": [
        {
          "internalType": "uint256",
          "name": "",
          "type": "uint256"
        }
      ],
      "stateMutability": "view",
      "type": "function"
    },
    {
      "inputs": [
        {
          "internalType": "uint256",
          "name": "amount",
          "type": "uint256"
        }
      ],
      "name": "burn",
      "outputs": [],
      "stateMutability": "nonpayable",
      "type": "function"
    },
    {
      "inputs": [],
      "name": "decimals",
      "outputs": [
        {
          "internalType": "uint8",
          "name": "",
          "type": "uint8"
        }
      ],
      "stateMutability": "view",
      "type": "function"
    },
    {
      "inputs": [
        {
          "internalType": "address",
          "name": "to",
          "type": "address"
        },
        {
          "internalType": "uint256",
          "name": "amount",
          "type": "uint256"
        }
      ],
      "name": "mint",
      "outputs": [],
      "stateMutability": "nonpayable",
      "type": "function"
    },
    {
      "inputs": [],
      "name": "name",
      "outputs": [
        {
          "internalType": "string",
          "name": "",
          "type": "string"
        }
      ],
      "stateMutability": "view",
      "type": "function"
    },
    {
      "inputs": [],
      "name": "owner",
      "outputs": [
        {
          "internalType": "address",
          "name": "",
          "type": "address"
        }
      ],
      "stateMutability": "view",
      "type": "function"
    },
    {
      "inputs": [],
      "name": "symbol",
      "outputs": [
        {
          "internalType": "string",
          "name": "",
          "type": "string"
        }
      ],
      "stateMutability": "view",
      "type": "function"
    },
    {
      "inputs": [],
      "name": "totalSupply",
      "outputs": [
        {
          "internalType": "uint256",
          "name": "",
          "type": "uint256"
        }
      ],
      "stateMutability": "view",
      "type": "function"
    },
    {
      "inputs": [
        {
          "internalType": "address",
          "name": "recipient",
          "type": "address"
        },
        {
          "internalType": "uint256",
          "name": "amount",
          "type": "uint256"
        }
      ],
      "name": "transfer",
      "outputs": [
        {
          "internalType": "bool",
          "name": "",
          "type": "bool"
        }
      ],
      "stateMutability": "nonpayable",
      "type": "function"
    },
    {
      "inputs": [
        {
          "internalType": "address",
          "name": "sender",
          "type": "address"
        },
        {
          "internalType": "address",
          "name": "recipient",
          "type": "address"
        },
        {
          "internalType": "uint256",
          "name": "amount",
          "type": "uint256"
        }
      ],
      "name": "transferFrom",
      "outputs": [
        {
          "internalType": "bool",
          "name": "",
          "type": "bool"
        }
      ],
      "stateMutability": "nonpayable",
      "type": "function"
    }
  ],
  "bytecode": "0x60c0604052601360809081527f43616d70757320426f756e747920546f6b656e0000000000000000000000000060a0525f9061003b90826101b2565b5060408051808201909152600381526210d09560ea1b602082015260019061006390826101b2565b506002805460ff1916601217905534801561007c575f5ffd5b50604051610fd5380380610fd583398101604081905261009b9161026c565b600480546001600160a01b031916331790556002546100be9060ff16600a61037c565b6100c89082610391565b6003819055335f81815260056020908152604080832085905551938452919290917fddf252ad1be2c89b69c2b068fc378daa952ba7f163c4a11628f55a4df523b3ef910160405180910390a3506103a8565b634e487b7160e01b5f52604160045260245ffd5b600181811c9082168061014257607f821691505b60208210810361016057634e487b7160e01b5f52602260045260245ffd5b50919050565b601f8211156101ad57805f5260205f20601f840160051c8101602085101561018b5750805b601f840160051c820191505b818110156101aa575f8155600101610197565b50505b505050565b81516001600160401b038111156101cb576101cb61011a565b6101df816101d9845461012e565b84610166565b6020601f821160018114610211575f83156101fa5750848201515b5f19600385901b1c1916600184901b1784556101aa565b5f84815260208120601f198516915b828110156102405787850151825560209485019460019092019101610220565b508482101561025d57868401515f19600387901b60f8161c191681555b50505050600190811b01905550565b5f6020828403121561027c575f5ffd5b5051919050565b634e487b7160e01b5f52601160045260245ffd5b6001815b60018411156102d2578085048111156102b6576102b6610283565b60018416156102c457908102905b60019390931c92800261029b565b935093915050565b5f826102e857506001610376565b816102f457505f610376565b816001811461030a576002811461031457610330565b6001915050610376565b60ff84111561032557610325610283565b50506001821b610376565b5060208310610133831016604e8410600b8410161715610353575081810a610376565b61035f5f198484610297565b805f190482111561037257610372610283565b0290505b92915050565b5f61038a60ff8416836102da565b9392505050565b808202811582820484141761037657610376610283565b610c20806103b55f395ff3fe608060405234801561000f575f5ffd5b50600436106100cb575f3560e01c806342966c681161008857806395d89b411161006357806395d89b41146101cb578063a9059cbb146101d3578063c204642c146101e6578063dd62ed3e146101f9575f5ffd5b806342966c681461016e57806370a08231146101815780638da5cb5b146101a0575f5ffd5b806306fdde03146100cf578063095ea7b3146100ed57806318160ddd1461011057806323b872dd14610127578063313ce5671461013a57806340c10f1914610159575b5f5ffd5b6100d7610223565b6040516100e49190610915565b60405180910390f35b6101006100fb366004610965565b6102ae565b60405190151581526020016100e4565b61011960035481565b6040519081526020016100e4565b61010061013536600461098d565b61036f565b6002546101479060ff1681565b60405160ff90911681526020016100e4565b61016c610167366004610965565b610538565b005b61016c61017c3660046109c7565b610680565b61011961018f3660046109de565b60056020525f908152604090205481565b6004546101b3906001600160a01b031681565b6040516001600160a01b0390911681526020016100e4565b6100d7610710565b6101006101e1366004610965565b61071d565b61016c6101f4366004610a12565b610816565b610119610207366004610ae5565b600660209081525f928352604080842090915290825290205481565b5f805461022f90610b16565b80601f016020809104026020016040519081016040528092919081815260200182805461025b90610b16565b80156102a65780601f1061027d576101008083540402835291602001916102a6565b820191905f5260205f20905b81548152906001019060200180831161028957829003601f168201915b505050505081565b5f6001600160a01b03831661030a5760405162461bcd60e51b815260206004820152601760248201527f417070726f766520746f207a65726f206164647265737300000000000000000060448201526064015b60405180910390fd5b335f8181526006602090815260408083206001600160a01b03881680855290835292819020869055518581529192917f8c5be1e5ebec7d5bd14f71427d1e84f3dd0314c0f7b2291e5b200ac8c7c3b92591015b60405180910390a35060015b92915050565b5f6001600160a01b0383166103c15760405162461bcd60e51b81526020600482015260186024820152775472616e7366657220746f207a65726f206164647265737360401b6044820152606401610301565b6001600160a01b0384165f908152600560205260409020548211156103f85760405162461bcd60e51b815260040161030190610b4e565b6001600160a01b0384165f9081526006602090815260408083203384529091529020548211156104635760405162461bcd60e51b8152602060048201526016602482015275496e73756666696369656e7420616c6c6f77616e636560501b6044820152606401610301565b6001600160a01b0384165f908152600560205260408120805484929061048a908490610b90565b90915550506001600160a01b0383165f90815260056020526040812080548492906104b6908490610ba3565b90915550506001600160a01b0384165f908152600660209081526040808320338452909152812080548492906104ed908490610b90565b92505081905550826001600160a01b0316846001600160a01b03165f516020610bcb5f395f51905f528460405161052691815260200190565b60405180910390a35060019392505050565b6004546001600160a01b031633146105825760405162461bcd60e51b815260206004820152600d60248201526c2737ba103a34329037bbb732b960991b6044820152606401610301565b6001600160a01b0382166105cf5760405162461bcd60e51b81526020600482015260146024820152734d696e7420746f207a65726f206164647265737360601b6044820152606401610301565b8060035f8282546105e09190610ba3565b90915550506001600160a01b0382165f908152600560205260408120805483929061060c908490610ba3565b90915550506040518181526001600160a01b038316907f0f6798a560793a54c3bcfe86a93cde1e73087d944c0ea20544137d41213968859060200160405180910390a26040518181526001600160a01b038316905f905f516020610bcb5f395f51905f529060200160405180910390a35050565b335f908152600560205260409020548111156106ae5760405162461bcd60e51b815260040161030190610b4e565b335f90815260056020526040812080548392906106cc908490610b90565b925050819055508060035f8282546106e49190610b90565b90915550506040518181525f9033905f516020610bcb5f395f51905f529060200160405180910390a350565b6001805461022f90610b16565b5f6001600160a01b03831661076f5760405162461bcd60e51b81526020600482015260186024820152775472616e7366657220746f207a65726f206164647265737360401b6044820152606401610301565b335f9081526005602052604090205482111561079d5760405162461bcd60e51b815260040161030190610b4e565b335f90815260056020526040812080548492906107bb908490610b90565b90915550506001600160a01b0383165f90815260056020526040812080548492906107e7908490610ba3565b90915550506040518281526001600160a01b0384169033905f516020610bcb5f395f51905f529060200161035d565b6004546001600160a01b031633146108605760405162461bcd60e51b815260206004820152600d60248201526c2737ba103a34329037bbb732b960991b6044820152606401610301565b5f5b8251811015610910575f6001600160a01b031683828151811061088757610887610bb6565b60200260200101516001600160a01b0316036108e55760405162461bcd60e51b815260206004820152601760248201527f496e76616c69642073747564656e7420616464726573730000000000000000006044820152606401610301565b6109088382815181106108fa576108fa610bb6565b602002602001015183610538565b600101610862565b505050565b602081525f82518060208401528060208501604085015e5f604082850101526040601f19601f83011684010191505092915050565b80356001600160a01b0381168114610960575f5ffd5b919050565b5f5f60408385031215610976575f5ffd5b61097f8361094a565b946020939093013593505050565b5f5f5f6060848603121561099f575f5ffd5b6109a88461094a565b92506109b66020850161094a565b929592945050506040919091013590565b5f602082840312156109d7575f5ffd5b5035919050565b5f602082840312156109ee575f5ffd5b6109f78261094a565b9392505050565b634e487b7160e01b5f52604160045260245ffd5b5f5f60408385031215610a23575f5ffd5b823567ffffffffffffffff811115610a39575f5ffd5b8301601f81018513610a49575f5ffd5b803567ffffffffffffffff811115610a6357610a636109fe565b8060051b604051601f19603f830116810181811067ffffffffffffffff82111715610a9057610a906109fe565b604052918252602081840181019290810188841115610aad575f5ffd5b6020850194505b83851015610ad357610ac58561094a565b815260209485019401610ab4565b50976020969096013596505050505050565b5f5f60408385031215610af6575f5ffd5b610aff8361094a565b9150610b0d6020840161094a565b90509250929050565b600181811c90821680610b2a57607f821691505b602082108103610b4857634e487b7160e01b5f52602260045260245ffd5b50919050565b602080825260149082015273496e73756666696369656e742062616c616e636560601b604082015260600190565b634e487b7160e01b5f52601160045260245ffd5b8181038181111561036957610369610b7c565b8082018082111561036957610369610b7c565b634e487b7160e01b5f52603260045260245ffdfeddf252ad1be2c89b69c2b068fc378daa952ba7f163c4a11628f55a4df523b3efa26469706673582212203b3c13cf661cdc02862b996284872ba822a150e03f2f3f59caa2e9fc2c37bd0864736f6c634300081e0033",
  "linkReferences": {},
  "deployedLinkReferences": {},
  "immutableReferences": {},
  "inputSourceName": "project/contracts/BountyToken.sol",
  "buildInfoId": "solc-0_8_30-4bc34778297fbc443fcd6d027b8a42919c4c5426"
}