{
  "_format": "hh3-artifact-1",
  "contractName": "ReputationNFT",
  "sourceName": "contracts/ReputationNFT.sol",
  "abi": [
    {
      "inputs": [],
      "stateMutability": "nonpayable",
      "type": "constructor"
    },
    {
      "anonymous": false,
      "inputs": [
        {
          "indexed": true,
          "internalType": "uint256",
          "name": "tokenId",
          "type": "uint256"
        },
        {
          "indexed": true,
          "internalType": "address",
          "name": "student",
          "type": "address"
        },
        {
          "indexed": false,
          "internalType": "enum ReputationNFT.Category",
          "name": "category",
          "type": "uint8"
        }
      ],
      "name": "BadgeIssued",
      "type": "event"
    },
    {
      "anonymous": false,
      "inputs": [
        {
          "indexed": true,
          "internalType": "address",
          "name": "from",
          "type": "address"
        },
        {
          "indexed": true,
          "internalType": "address",
          "name": "to",
          "type": "address"
        },
        {
          "indexed": true,
          "internalType": "uint256",
          "name": "tokenId",
          "type": "uint256"
        }
      ],
      "name": "Transfer",
      "type": "event"
    },
    {
      "inputs": [
        {
          "internalType": "address",
          "name": "issuer",
          "type": "address"
        }
      ],
      "name": "addIssuer",
      "outputs": [],
      "stateMutability": "nonpayable",
      "type": "function"
    },
    {
      "inputs": [
        {
          "internalType": "uint256",
          "name": "",
          "type": "uint256"
        }
      ],
      "name": "badges",
      "outputs": [
        {
          "internalType": "uint256",
          "name": "id",
          "type": "uint256"
        },
        {
          "internalType": "address",
          "name": "student",
          "type": "address"
        },
        {
          "internalType": "enum ReputationNFT.Category",
          "name": "category",
          "type": "uint8"
        },
        {
          "internalType": "uint256",
          "name": "issuedDate",
          "type": "uint256"
        },
        {
          "internalType": "string",
          "name": "achievement",
          "type": "string"
        }
      ],
      "stateMutability": "view",
      "type": "function"
    },
    {
      "inputs": [
        {
          "internalType": "address",
          "name": "",
          "type": "address"
        }
      ],
      "name": "balanceOf",
      "outputs": [
        {
          "internalType": "uint256",
          "name": "",
          "type": "uint256"
        }
      ],
      "stateMutability": "view",
      "type": "function"
    },
    {
      "inputs": [
        {
          "internalType": "address",
          "name": "",
          "type": "address"
        },
        {
          "internalType": "enum ReputationNFT.Category",
          "name": "",
          "type": "uint8"
        }
      ],
      "name": "categoryCount",
      "outputs": [
        {
          "internalType": "uint256",
          "name": "",
          "type": "uint256"
        }
      ],
      "stateMutability": "view",
      "type": "function"
    },
    {
      "inputs": [
        {
          "internalType": "uint256",
          "name": "tokenId",
          "type": "uint256"
        }
      ],
      "name": "getBadge",
      "outputs": [
        {
          "internalType": "address",
          "name": "student",
          "type": "address"
        },
        {
          "internalType": "enum ReputationNFT.Category",
          "name": "category",
          "type": "uint8"
        },
        {
          "internalType": "uint256",
          "name": "issuedDate",
          "type": "uint256"
        },
        {
          "internalType": "string",
          "name": "achievement",
          "type": "string"
        }
      ],
      "stateMutability": "view",
      "type": "function"
    },
    {
      "inputs": [
        {
          "internalType": "address",
          "name": "student",
          "type": "address"
        },
        {
          "internalType": "enum ReputationNFT.Category",
          "name": "category",
          "type": "uint8"
        }
      ],
      "name": "getCategoryCount",
      "outputs": [
        {
          "internalType": "uint256",
          "name": "",
          "type": "uint256"
        }
      ],
      "stateMutability": "view",
      "type": "function"
    },
    {
      "inputs": [
        {
          "internalType": "address",
          "name": "student",
          "type": "address"
        }
      ],
      "name": "getStudentBadges",
      "outputs": [
        {
          "internalType": "uint256[]",
          "name": "",
          "type": "uint256[]"
        }
      ],
      "stateMutability": "view",
      "type": "function"
    },
    {
      "inputs": [
        {
          "internalType": "address",
          "name": "student",
          "type": "address"
        },
        {
          "internalType": "enum ReputationNFT.Category",
          "name": "category",
          "type": "uint8"
        }
      ],
      "name": "hasCategoryBadge",
      "outputs": [
        {
          "internalType": "bool",
          "name": "",
          "type": "bool"
        }
      ],
      "stateMutability": "view",
      "type": "function"
    },
    {
      "inputs": [
        {
          "internalType": "address",
          "name": "",
          "type": "address"
        }
      ],
      "name": "isIssuer",
      "outputs": [
        {
          "internalType": "bool",
          "name": "",
          "type": "bool"
        }
      ],
      "stateMutability": "view",
      "type": "function"
    },
    {
      "inputs": [
        {
          "internalType": "address",
          "name": "student",
          "type": "address"
        },
        {
          "internalType": "enum ReputationNFT.Category",
          "name": "category",
          "type": "uint8"
        },
        {
          "internalType": "string",
          "name": "achievement",
          "type": "string"
        }
      ],
      "name": "issueBadge",
      "outputs": [
        {
          "internalType": "uint256",
          "name": "",
          "type": "uint256"
        }
      ],
      "stateMutability": "nonpayable",
      "type": "function"
    },
    {
      "inputs": [],
      "name": "name",
      "outputs": [
        {
          "internalType": "string",
          "name": "",
          "type": "string"
        }
      ],
      "stateMutability": "view",
      "type": "function"
    },
    {
      "inputs": [],
      "name": "nextTokenId",
      "outputs": [
        {
          "internalType": "uint256",
          "name": "",
          "type": "uint256"
        }
      ],
      "stateMutability": "view",
      "type": "function"
    },
    {
      "inputs": [],
      "name": "owner",
      "outputs": [
        {
          "internalType": "address",
          "name": "",
          "type": "address"
        }
      ],
      "stateMutability": "view",
      "type": "function"
    },
    {
      "inputs": [
        {
          "internalType": "uint256",
          "name": "",
          "type": "uint256"
        }
      ],
      "name": "ownerOf",
      "outputs": [
        {
          "internalType": "address",
          "name": "",
          "type": "address"
        }
      ],
      "stateMutability": "view",
      "type": "function"
    },
    {
      "inputs": [
        {
          "internalType": "address",
          "name": "issuer",
          "type": "address"
        }
      ],
      "name": "removeIssuer",
      "outputs": [],
      "stateMutability": "nonpayable",
      "type": "function"
    },
    {
      "inputs": [
        {
          "internalType": "address",
          "name": "from",
          "type": "address"
        },
        {
          "internalType": "address",
          "name": "to",
          "type": "address"
        },
        {
          "internalType": "uint256",
          "name": "tokenId",
          "type": "uint256"
        }
      ],
      "name": "safeTransferFrom",
      "outputs": [],
      "stateMutability": "pure",
      "type": "function"
    },
    {
      "inputs": [
        {
          "internalType": "address",
          "name": "",
          "type": "address"
        },
        {
          "internalType": "uint256",
          "name": "",
          "type": "uint256"
        }
      ],
      "name": "studentBadges",
      "outputs": [
        {
          "internalType": "uint256",
          "name": "",
          "type": "uint256"
        }
      ],
      "stateMutability": "view",
      "type": "function"
    },
    {
      "inputs": [],
      "name": "symbol",
      "outputs": [
        {
          "internalType": "string",
          "name": "",
          "type": "string"
        }
      ],
      "stateMutability": "view",
      "type": "function"
    },
    {
      "inputs": [],
      "name": "totalSupply",
      "outputs": [
        {
          "internalType": "uint256",
          "name": "",
          "type": "uint256"
        }
      ],
      "stateMutability": "view",
      "type": "function"
    },
    {
      "inputs": [
        {
          "internalType": "address",
          "name": "from",
          "type": "address"
        },
        {
          "internalType": "address",
          "name": "to",
          "type": "address"
        },
        {
          "internalType": "uint256",
          "name": "tokenId",
          "type": "uint256"
        }
      ],
      "name": "transferFrom",
      "outputs": [],
      "stateMutability": "pure",
      "type": "function"
    }
  ],
  "bytecode": "0x60c0604052601760809081527f43616d7075732052657075746174696f6e20426164676500000000000000000060a0525f9061003b9082610141565b50604080518082019091526005815264424144474560d81b60208201526001906100659082610141565b506001600455348015610076575f5ffd5b50600280546001600160a01b031916339081179091555f908152600360205260409020805460ff191660011790556101fb565b634e487b7160e01b5f52604160045260245ffd5b600181811c908216806100d157607f821691505b6020821081036100ef57634e487b7160e01b5f52602260045260245ffd5b50919050565b601f82111561013c57805f5260205f20601f840160051c8101602085101561011a5750805b601f840160051c820191505b81811015610139575f8155600101610126565b50505b505050565b81516001600160401b0381111561015a5761015a6100a9565b61016e8161016884546100bd565b846100f5565b6020601f8211600181146101a0575f83156101895750848201515b5f19600385901b1c1916600184901b178455610139565b5f84815260208120601f198516915b828110156101cf57878501518255602094850194600190920191016101af565b50848210156101ec57868401515f19600387901b60f8161c191681555b50505050600190811b01905550565b611078806102085f395ff3fe608060405234801561000f575f5ffd5b5060043610610127575f3560e01c806375794a3c116100a957806398e36d8b1161006e57806398e36d8b146102985780639ee8921b146102bc578063bd1aa6ee146102dc578063c7b6e30d14610306578063f21a7a8e14610319575f5ffd5b806375794a3c1461022f578063877b9a67146102385780638d8386221461025a5780638da5cb5b1461027d57806395d89b4114610290575f5ffd5b806342842e0e116100ef57806342842e0e1461019757806347bc7093146101aa578063547cd644146101bd5780636352211e146101d057806370a0823114610210575f5ffd5b806306fdde031461012b578063093cbed51461014957806318160ddd1461016c57806320694db01461018257806323b872dd14610197575b5f5ffd5b61013361032c565b6040516101409190610bd1565b60405180910390f35b61015c610157366004610c13565b6103b7565b6040519015158152602001610140565b61017461040c565b604051908152602001610140565b610195610190366004610c44565b610421565b005b6101956101a5366004610c5d565b6104e2565b6101956101b8366004610c44565b61052a565b6101746101cb366004610c97565b610594565b6101f86101de366004610cbf565b60056020525f90815260409020546001600160a01b031681565b6040516001600160a01b039091168152602001610140565b61017461021e366004610c44565b60066020525f908152604090205481565b61017460045481565b61015c610246366004610c44565b60036020525f908152604090205460ff1681565b61026d610268366004610cbf565b6105bf565b6040516101409493929190610d0a565b6002546101f8906001600160a01b031681565b610133610748565b6102ab6102a6366004610cbf565b610755565b604051610140959493929190610d48565b6102cf6102ca366004610c44565b61081a565b6040516101409190610d8d565b6101746102ea366004610c13565b600960209081525f928352604080842090915290825290205481565b610174610314366004610de3565b610883565b610174610327366004610c13565b610b52565b5f805461033890610eb6565b80601f016020809104026020016040519081016040528092919081815260200182805461036490610eb6565b80156103af5780601f10610386576101008083540402835291602001916103af565b820191905f5260205f20905b81548152906001019060200180831161039257829003601f168201915b505050505081565b6001600160a01b0382165f9081526009602052604081208190818460048111156103e3576103e3610cd6565b60048111156103f4576103f4610cd6565b81526020019081526020015f20541190505b92915050565b5f600160045461041c9190610f02565b905090565b6002546001600160a01b031633146104705760405162461bcd60e51b815260206004820152600d60248201526c2737ba103a34329037bbb732b960991b60448201526064015b60405180910390fd5b6001600160a01b0381166104bf5760405162461bcd60e51b8152602060048201526016602482015275496e76616c696420697373756572206164647265737360501b6044820152606401610467565b6001600160a01b03165f908152600360205260409020805460ff19166001179055565b60405162461bcd60e51b815260206004820152601b60248201527f42616467657320617265206e6f6e2d7472616e7366657261626c6500000000006044820152606401610467565b6002546001600160a01b031633146105745760405162461bcd60e51b815260206004820152600d60248201526c2737ba103a34329037bbb732b960991b6044820152606401610467565b6001600160a01b03165f908152600360205260409020805460ff19169055565b6008602052815f5260405f2081815481106105ad575f80fd5b905f5260205f20015f91509150505481565b5f81815260056020526040812054819081906060906001600160a01b03166106205760405162461bcd60e51b815260206004820152601460248201527310985919d948191bd95cc81b9bdd08195e1a5cdd60621b6044820152606401610467565b5f858152600760209081526040808320815160a0810183528154815260018201546001600160a01b03811694820194909452929091830190600160a01b900460ff16600481111561067357610673610cd6565b600481111561068457610684610cd6565b8152602001600282015481526020016003820180546106a290610eb6565b80601f01602080910402602001604051908101604052809291908181526020018280546106ce90610eb6565b80156107195780601f106106f057610100808354040283529160200191610719565b820191905f5260205f20905b8154815290600101906020018083116106fc57829003601f168201915b505050505081525050905080602001518160400151826060015183608001519450945094509450509193509193565b6001805461033890610eb6565b60076020525f9081526040902080546001820154600283015460038401805493946001600160a01b03841694600160a01b90940460ff169390919061079990610eb6565b80601f01602080910402602001604051908101604052809291908181526020018280546107c590610eb6565b80156108105780601f106107e757610100808354040283529160200191610810565b820191905f5260205f20905b8154815290600101906020018083116107f357829003601f168201915b5050505050905085565b6001600160a01b0381165f9081526008602090815260409182902080548351818402810184019094528084526060939283018282801561087757602002820191905f5260205f20905b815481526020019060010190808311610863575b50505050509050919050565b335f9081526003602052604081205460ff166108d95760405162461bcd60e51b81526020600482015260156024820152742737ba1030baba3437b934bd32b21034b9b9bab2b960591b6044820152606401610467565b6001600160a01b03841661092f5760405162461bcd60e51b815260206004820152601760248201527f496e76616c69642073747564656e7420616464726573730000000000000000006044820152606401610467565b600480545f918261093f83610f15565b909155505f81815260056020908152604080832080546001600160a01b0319166001600160a01b038b1690811790915583526006909152812080549293509061098783610f15565b91905055506040518060a00160405280828152602001866001600160a01b031681526020018560048111156109be576109be610cd6565b81524260208083019190915260409182018690525f8481526007825282902083518155908301516001820180546001600160a01b039092166001600160a01b031983168117825593850151929390916001600160a81b03191617600160a01b836004811115610a2f57610a2f610cd6565b02179055506060820151600282015560808201516003820190610a529082610f79565b5050506001600160a01b0385165f8181526008602090815260408083208054600181018255908452828420018590559282526009905290812090856004811115610a9e57610a9e610cd6565b6004811115610aaf57610aaf610cd6565b81526020019081526020015f205f815480929190610acc90610f15565b909155505060405181906001600160a01b038716905f907fddf252ad1be2c89b69c2b068fc378daa952ba7f163c4a11628f55a4df523b3ef908290a4846001600160a01b0316817fdf2bdc3cf352e487009dc57af203bee6873c7eefce712b7ba38e79e0b8e6df9f86604051610b429190611034565b60405180910390a3949350505050565b6001600160a01b0382165f90815260096020526040812081836004811115610b7c57610b7c610cd6565b6004811115610b8d57610b8d610cd6565b81526020019081526020015f2054905092915050565b5f81518084528060208401602086015e5f602082860101526020601f19601f83011685010191505092915050565b602081525f610be36020830184610ba3565b9392505050565b80356001600160a01b0381168114610c00575f5ffd5b919050565b803560058110610c00575f5ffd5b5f5f60408385031215610c24575f5ffd5b610c2d83610bea565b9150610c3b60208401610c05565b90509250929050565b5f60208284031215610c54575f5ffd5b610be382610bea565b5f5f5f60608486031215610c6f575f5ffd5b610c7884610bea565b9250610c8660208501610bea565b929592945050506040919091013590565b5f5f60408385031215610ca8575f5ffd5b610cb183610bea565b946020939093013593505050565b5f60208284031215610ccf575f5ffd5b5035919050565b634e487b7160e01b5f52602160045260245ffd5b60058110610d0657634e487b7160e01b5f52602160045260245ffd5b9052565b6001600160a01b0385168152610d236020820185610cea565b826040820152608060608201525f610d3e6080830184610ba3565b9695505050505050565b8581526001600160a01b0385166020820152610d676040820185610cea565b82606082015260a060808201525f610d8260a0830184610ba3565b979650505050505050565b602080825282518282018190525f918401906040840190835b81811015610dc4578351835260209384019390920191600101610da6565b509095945050505050565b634e487b7160e01b5f52604160045260245ffd5b5f5f5f60608486031215610df5575f5ffd5b610dfe84610bea565b9250610e0c60208501610c05565b9150604084013567ffffffffffffffff811115610e27575f5ffd5b8401601f81018613610e37575f5ffd5b803567ffffffffffffffff811115610e5157610e51610dcf565b604051601f8201601f19908116603f0116810167ffffffffffffffff81118282101715610e8057610e80610dcf565b604052818152828201602001881015610e97575f5ffd5b816020840160208301375f602083830101528093505050509250925092565b600181811c90821680610eca57607f821691505b602082108103610ee857634e487b7160e01b5f52602260045260245ffd5b50919050565b634e487b7160e01b5f52601160045260245ffd5b8181038181111561040657610406610eee565b5f60018201610f2657610f26610eee565b5060010190565b601f821115610f7457805f5260205f20601f840160051c81016020851015610f525750805b601f840160051c820191505b81811015610f71575f8155600101610f5e565b50505b505050565b815167ffffffffffffffff811115610f9357610f93610dcf565b610fa781610fa18454610eb6565b84610f2d565b6020601f821160018114610fd9575f8315610fc25750848201515b5f19600385901b1c1916600184901b178455610f71565b5f84815260208120601f198516915b828110156110085787850151825560209485019460019092019101610fe8565b508482101561102557868401515f19600387901b60f8161c191681555b50505050600190811b01905550565b602081016104068284610cea56fea264697066735822122082261febaec4a85730a80197f1f295484ba5574be3ffd60dd8e7f348239db89d64736f6c634300081e0033",
  "linkReferences": {},
  "deployedLinkReferences": {},
  "immutableReferences": {},
  "inputSourceName": "project/contracts/ReputationNFT.sol",
  "buildInfoId": "solc-0_8_30-3aaaf8dc16dc1b54da1c0bb8b7b66fbb07e22bf3"
}