{
  "_format": "hh3-artifact-1",
  "contractName": "EscrowManager",
  "sourceName": "contracts/EscrowManager.sol",
  "abi": [
    {
      "inputs": [
        {
          "internalType": "address",
          "name": "_tokenAddress",
          "type": "address"
        }
      ],
      "stateMutability": "nonpayable",
      "type": "constructor"
    },
    {
      "anonymous": false,
      "inputs": [
        {
          "indexed": true,
          "internalType": "uint256",
          "name": "escrowId",
          "type": "uint256"
        },
        {
          "indexed": false,
          "internalType": "address",
          "name": "winner",
          "type": "address"
        }
      ],
      "name": "DisputeResolved",
      "type": "event"
    },
    {
      "anonymous": false,
      "inputs": [
        {
          "indexed": true,
          "internalType": "uint256",
          "name": "escrowId",
          "type": "uint256"
        },
        {
          "indexed": true,
          "internalType": "address",
          "name": "depositor",
          "type": "address"
        },
        {
          "indexed": true,
          "internalType": "address",
          "name": "beneficiary",
          "type": "address"
        },
        {
          "indexed": false,
          "internalType": "uint256",
          "name": "amount",
          "type": "uint256"
        }
      ],
      "name": "EscrowCreated",
      "type": "event"
    },
    {
      "anonymous": false,
      "inputs": [
        {
          "indexed": true,
          "internalType": "uint256",
          "name": "escrowId",
          "type": "uint256"
        }
      ],
      "name": "EscrowDisputed",
      "type": "event"
    },
    {
      "anonymous": false,
      "inputs": [
        {
          "indexed": true,
          "internalType": "uint256",
          "name": "escrowId",
          "type": "uint256"
        },
        {
          "indexed": true,
          "internalType": "address",
          "name": "depositor",
          "type": "address"
        },
        {
          "indexed": false,
          "internalType": "uint256",
          "name": "amount",
          "type": "uint256"
        }
      ],
      "name": "EscrowRefunded",
      "type": "event"
    },
    {
      "anonymous": false,
      "inputs": [
        {
          "indexed": true,
          "internalType": "uint256",
          "name": "escrowId",
          "type": "uint256"
        },
        {
          "indexed": true,
          "internalType": "address",
          "name": "beneficiary",
          "type": "address"
        },
        {
          "indexed": false,
          "internalType": "uint256",
          "name": "amount",
          "type": "uint256"
        }
      ],
      "name": "EscrowReleased",
      "type": "event"
    },
    {
      "inputs": [],
      "name": "arbiter",
      "outputs": [
        {
          "internalType": "address",
          "name": "",
          "type": "address"
        }
      ],
      "stateMutability": "view",
      "type": "function"
    },
    {
      "inputs": [
        {
          "internalType": "address",
          "name": "",
          "type": "address"
        },
        {
          "internalType": "uint256",
          "name": "",
          "type": "uint256"
        }
      ],
      "name": "beneficiaryEscrows",
      "outputs": [
        {
          "internalType": "uint256",
          "name": "",
          "type": "uint256"
        }
      ],
      "stateMutability": "view",
      "type": "function"
    },
    {
      "inputs": [
        {
          "internalType": "uint256",
          "name": "escrowId",
          "type": "uint256"
        }
      ],
      "name": "claimTimeout",
      "outputs": [],
      "stateMutability": "nonpayable",
      "type": "function"
    },
    {
      "inputs": [
        {
          "internalType": "address",
          "name": "beneficiary",
          "type": "address"
        },
        {
          "internalType": "uint256",
          "name": "amount",
          "type": "uint256"
        },
        {
          "internalType": "uint256",
          "name": "timeoutDuration",
          "type": "uint256"
        },
        {
          "internalType": "string",
          "name": "purpose",
          "type": "string"
        }
      ],
      "name": "createEscrow",
      "outputs": [
        {
          "internalType": "uint256",
          "name": "",
          "type": "uint256"
        }
      ],
      "stateMutability": "nonpayable",
      "type": "function"
    },
    {
      "inputs": [
        {
          "internalType": "address",
          "name": "",
          "type": "address"
        },
        {
          "internalType": "uint256",
          "name": "",
          "type": "uint256"
        }
      ],
      "name": "depositorEscrows",
      "outputs": [
        {
          "internalType": "uint256",
          "name": "",
          "type": "uint256"
        }
      ],
      "stateMutability": "view",
      "type": "function"
    },
    {
      "inputs": [
        {
          "internalType": "uint256",
          "name": "",
          "type": "uint256"
        }
      ],
      "name": "escrows",
      "outputs": [
        {
          "internalType": "uint256",
          "name": "id",
          "type": "uint256"
        },
        {
          "internalType": "address",
          "name": "depositor",
          "type": "address"
        },
        {
          "internalType": "address",
          "name": "beneficiary",
          "type": "address"
        },
        {
          "internalType": "uint256",
          "name": "amount",
          "type": "uint256"
        },
        {
          "internalType": "uint256",
          "name": "createdAt",
          "type": "uint256"
        },
        {
          "internalType": "uint256",
          "name": "timeoutDuration",
          "type": "uint256"
        },
        {
          "internalType": "enum EscrowManager.EscrowStatus",
          "name": "status",
          "type": "uint8"
        },
        {
          "internalType": "string",
          "name": "purpose",
          "type": "string"
        }
      ],
      "stateMutability": "view",
      "type": "function"
    },
    {
      "inputs": [
        {
          "internalType": "address",
          "name": "beneficiary",
          "type": "address"
        }
      ],
      "name": "getBeneficiaryEscrows",
      "outputs": [
        {
          "internalType": "uint256[]",
          "name": "",
          "type": "uint256[]"
        }
      ],
      "stateMutability": "view",
      "type": "function"
    },
    {
      "inputs": [
        {
          "internalType": "address",
          "name": "depositor",
          "type": "address"
        }
      ],
      "name": "getDepositorEscrows",
      "outputs": [
        {
          "internalType": "uint256[]",
          "name": "",
          "type": "uint256[]"
        }
      ],
      "stateMutability": "view",
      "type": "function"
    },
    {
      "inputs": [
        {
          "internalType": "uint256",
          "name": "escrowId",
          "type": "uint256"
        }
      ],
      "name": "getEscrow",
      "outputs": [
        {
          "internalType": "address",
          "name": "depositor",
          "type": "address"
        },
        {
          "internalType": "address",
          "name": "beneficiary",
          "type": "address"
        },
        {
          "internalType": "uint256",
          "name": "amount",
          "type": "uint256"
        },
        {
          "internalType": "enum EscrowManager.EscrowStatus",
          "name": "status",
          "type": "uint8"
        },
        {
          "internalType": "uint256",
          "name": "createdAt",
          "type": "uint256"
        },
        {
          "internalType": "uint256",
          "name": "timeoutDuration",
          "type": "uint256"
        },
        {
          "internalType": "string",
          "name": "purpose",
          "type": "string"
        }
      ],
      "stateMutability": "view",
      "type": "function"
    },
    {
      "inputs": [],
      "name": "nextEscrowId",
      "outputs": [
        {
          "internalType": "uint256",
          "name": "",
          "type": "uint256"
        }
      ],
      "stateMutability": "view",
      "type": "function"
    },
    {
      "inputs": [],
      "name": "owner",
      "outputs": [
        {
          "internalType": "address",
          "name": "",
          "type": "address"
        }
      ],
      "stateMutability": "view",
      "type": "function"
    },
    {
      "inputs": [],
      "name": "pause",
      "outputs": [],
      "stateMutability": "nonpayable",
      "type": "function"
    },
    {
      "inputs": [],
      "name": "paused",
      "outputs": [
        {
          "internalType": "bool",
          "name": "",
          "type": "bool"
        }
      ],
      "stateMutability": "view",
      "type": "function"
    },
    {
      "inputs": [
        {
          "internalType": "uint256",
          "name": "escrowId",
          "type": "uint256"
        }
      ],
      "name": "raiseDispute",
      "outputs": [],
      "stateMutability": "nonpayable",
      "type": "function"
    },
    {
      "inputs": [
        {
          "internalType": "uint256",
          "name": "escrowId",
          "type": "uint256"
        }
      ],
      "name": "refundEscrow",
      "outputs": [],
      "stateMutability": "nonpayable",
      "type": "function"
    },
    {
      "inputs": [
        {
          "internalType": "uint256",
          "name": "escrowId",
          "type": "uint256"
        }
      ],
      "name": "releaseEscrow",
      "outputs": [],
      "stateMutability": "nonpayable",
      "type": "function"
    },
    {
      "inputs": [
        {
          "internalType": "uint256",
          "name": "escrowId",
          "type": "uint256"
        },
        {
          "internalType": "bool",
          "name": "releaseToBeneficiary",
          "type": "bool"
        }
      ],
      "name": "resolveDispute",
      "outputs": [],
      "stateMutability": "nonpayable",
      "type": "function"
    },
    {
      "inputs": [
        {
          "internalType": "address",
          "name": "newArbiter",
          "type": "address"
        }
      ],
      "name": "setArbiter",
      "outputs": [],
      "stateMutability": "nonpayable",
      "type": "function"
    },
    {
      "inputs": [],
      "name": "token",
      "outputs": [
        {
          "internalType": "contract IERC20",
          "name": "",
          "type": "address"
        }
      ],
      "stateMutability": "view",
      "type": "function"
    },
    {
      "inputs": [],
      "name": "unpause",
      "outputs": [],
      "stateMutability": "nonpayable",
      "type": "function"
    }
  ],
  "bytecode": "0x608060405260016003553480156013575f5ffd5b506040516119723803806119728339810160408190526030916068565b5f80546001600160a01b039092166001600160a01b031992831617905560018054821633908117909155600280549092161790556093565b5f602082840312156077575f5ffd5b81516001600160a01b0381168114608c575f5ffd5b9392505050565b6118d2806100a05f395ff3fe608060405234801561000f575f5ffd5b5060043610610127575f3560e01c80638456cb59116100a9578063a7cbdf561161006e578063a7cbdf561461029e578063d5c3cf78146102b1578063ed653164146102c4578063fc0c546a146102d7578063fe25e00a146102e9575f5ffd5b80638456cb591461023c57806386e773f11461024457806389cb29dd146102575780638da5cb5b14610260578063a5c1674e1461028b575f5ffd5b8063356f9dfd116100ef578063356f9dfd146101c45780633f4ba83a146101d75780635c975abb146101df578063683f31d3146102035780637d19e59614610216575f5ffd5b8063012f52ee1461012b5780630385e9cc1461015b5780631c9c088a1461017b5780631cc4dd211461019057806334b25ee2146101b1575b5f5ffd5b61013e610139366004611353565b6102fc565b6040516101529897969594939291906113cc565b60405180910390f35b61016e610169366004611448565b6103d9565b6040516101529190611468565b61018e610189366004611448565b610442565b005b6101a361019e3660046114aa565b6104ed565b604051908152602001610152565b61018e6101bf3660046114e2565b610518565b61018e6101d2366004611353565b61080b565b61018e6109d5565b6002546101f390600160a01b900460ff1681565b6040519015158152602001610152565b6101a3610211366004611524565b610a0e565b610229610224366004611353565b610d6a565b60405161015297969594939291906115fa565b61018e610edb565b61018e610252366004611353565b610f1a565b6101a360035481565b600154610273906001600160a01b031681565b6040516001600160a01b039091168152602001610152565b61018e610299366004611353565b611031565b61016e6102ac366004611448565b611125565b6101a36102bf3660046114aa565b61118c565b61018e6102d2366004611353565b6111a5565b5f54610273906001600160a01b031681565b600254610273906001600160a01b031681565b600460208190525f91825260409091208054600182015460028301546003840154948401546005850154600686015460078701805496986001600160a01b039687169895909616969394929360ff909216929161035890611650565b80601f016020809104026020016040519081016040528092919081815260200182805461038490611650565b80156103cf5780601f106103a6576101008083540402835291602001916103cf565b820191905f5260205f20905b8154815290600101906020018083116103b257829003601f168201915b5050505050905088565b6001600160a01b0381165f9081526005602090815260409182902080548351818402810184019094528084526060939283018282801561043657602002820191905f5260205f20905b815481526020019060010190808311610422575b50505050509050919050565b6001546001600160a01b031633146104755760405162461bcd60e51b815260040161046c90611688565b60405180910390fd5b6001600160a01b0381166104cb5760405162461bcd60e51b815260206004820152601760248201527f496e76616c696420617262697465722061646472657373000000000000000000604482015260640161046c565b600280546001600160a01b0319166001600160a01b0392909216919091179055565b6005602052815f5260405f208181548110610506575f80fd5b905f5260205f20015f91509150505481565b6002546001600160a01b031633146105645760405162461bcd60e51b815260206004820152600f60248201526e2737ba103a34329030b93134ba32b960891b604482015260640161046c565b5f8281526004602052604090206003600682015460ff16600381111561058c5761058c61136a565b146105c85760405162461bcd60e51b815260206004820152600c60248201526b139bdd08191a5cdc1d5d195960a21b604482015260640161046c565b5f82156106cd575060068101805460ff1916600117905560028101545f54600383015460405163a9059cbb60e01b81526001600160a01b0393841660048201819052602482019290925290929091169063a9059cbb906044016020604051808303815f875af115801561063d573d5f5f3e3d5ffd5b505050506040513d601f19601f8201168201806040525081019061066191906116af565b61067d5760405162461bcd60e51b815260040161046c906116ca565b600282015460038301546040519081526001600160a01b039091169085907f6244ed823ca6be0f11bc890c3fafcf3c29cb23420c14243642e930b5e07e6d0a9060200160405180910390a36107c7565b5060068101805460ff1916600217905560018101545f54600383015460405163a9059cbb60e01b81526001600160a01b0393841660048201819052602482019290925290929091169063a9059cbb906044016020604051808303815f875af115801561073b573d5f5f3e3d5ffd5b505050506040513d601f19601f8201168201806040525081019061075f91906116af565b61077b5760405162461bcd60e51b815260040161046c906116ca565b600182015460038301546040519081526001600160a01b039091169085907feac97bc1917fcedc984e3d0671d4e83b359890323d5d1c2de32b28d17c356ced9060200160405180910390a35b6040516001600160a01b038216815284907ff77ceb5e091d2da041bc760667f9d5fe7a756949eaf29250ad0e60ca6f4c27d99060200160405180910390a250505050565b600254600160a01b900460ff16156108355760405162461bcd60e51b815260040161046c906116f9565b5f81815260046020526040902060018101546001600160a01b0316331480610869575060028101546001600160a01b031633145b6108a65760405162461bcd60e51b815260206004820152600e60248201526d139bdd08185d5d1a1bdc9a5e995960921b604482015260640161046c565b5f600682015460ff1660038111156108c0576108c061136a565b146108dd5760405162461bcd60e51b815260040161046c90611725565b60068101805460ff191660021790555f546001820154600383015460405163a9059cbb60e01b81526001600160a01b039283166004820152602481019190915291169063a9059cbb906044016020604051808303815f875af1158015610945573d5f5f3e3d5ffd5b505050506040513d601f19601f8201168201806040525081019061096991906116af565b6109855760405162461bcd60e51b815260040161046c906116ca565b600181015460038201546040519081526001600160a01b039091169083907feac97bc1917fcedc984e3d0671d4e83b359890323d5d1c2de32b28d17c356ced906020015b60405180910390a35050565b6001546001600160a01b031633146109ff5760405162461bcd60e51b815260040161046c90611688565b6002805460ff60a01b19169055565b6002545f90600160a01b900460ff1615610a3a5760405162461bcd60e51b815260040161046c906116f9565b6001600160a01b038516610a865760405162461bcd60e51b8152602060048201526013602482015272496e76616c69642062656e656669636961727960681b604482015260640161046c565b5f8411610ad55760405162461bcd60e51b815260206004820152601d60248201527f416d6f756e74206d7573742062652067726561746572207468616e2030000000604482015260640161046c565b62015180831015610b285760405162461bcd60e51b815260206004820152601e60248201527f54696d656f7574206d757374206265206174206c656173742031206461790000604482015260640161046c565b5f546040516323b872dd60e01b8152336004820152306024820152604481018690526001600160a01b03909116906323b872dd906064016020604051808303815f875af1158015610b7b573d5f5f3e3d5ffd5b505050506040513d601f19601f82011682018060405250810190610b9f91906116af565b610bbb5760405162461bcd60e51b815260040161046c906116ca565b600380545f9182610bcb83611764565b919050559050604051806101000160405280828152602001336001600160a01b03168152602001876001600160a01b031681526020018681526020014281526020018581526020015f6003811115610c2557610c2561136a565b815260209081018590525f83815260048083526040918290208451815592840151600180850180546001600160a01b039384166001600160a01b03199182161790915593860151600286018054919093169416939093179055606084015160038085019190915560808501519184019190915560a0840151600584015560c08401516006840180549193909260ff19909216918490811115610cc957610cc961136a565b021790555060e08201516007820190610ce290826117c8565b5050335f818152600560209081526040808320805460018082018355918552838520018790556001600160a01b038c168085526006845282852080549283018155855293839020018690555189815291935084917f9405ad0a6208539879349284d71265479b1623846f70303da1f9890d6e8c10a7910160405180910390a495945050505050565b5f8181526004602081815260408084208151610100810183528154815260018201546001600160a01b0390811694820194909452600282015490931691830191909152600380820154606084810191909152938201546080840152600582015460a08401526006820154859485948594859485948593929160c084019160ff1690811115610dfa57610dfa61136a565b6003811115610e0b57610e0b61136a565b8152602001600782018054610e1f90611650565b80601f0160208091040260200160405190810160405280929190818152602001828054610e4b90611650565b8015610e965780601f10610e6d57610100808354040283529160200191610e96565b820191905f5260205f20905b815481529060010190602001808311610e7957829003601f168201915b5050509190925250505060208101516040820151606083015160c0840151608085015160a086015160e090960151949f939e50919c509a509850919650945092505050565b6001546001600160a01b03163314610f055760405162461bcd60e51b815260040161046c90611688565b6002805460ff60a01b1916600160a01b179055565b600254600160a01b900460ff1615610f445760405162461bcd60e51b815260040161046c906116f9565b5f81815260046020526040902060018101546001600160a01b03163314610fa15760405162461bcd60e51b81526020600482015260116024820152702737ba103a3432903232b837b9b4ba37b960791b604482015260640161046c565b5f600682015460ff166003811115610fbb57610fbb61136a565b14610fd85760405162461bcd60e51b815260040161046c90611725565b80600501548160040154610fec9190611883565b4210156108dd5760405162461bcd60e51b8152602060048201526013602482015272151a5b595bdd5d081b9bdd081c995858da1959606a1b604482015260640161046c565b5f81815260046020526040902060018101546001600160a01b0316331480611065575060028101546001600160a01b031633145b6110b15760405162461bcd60e51b815260206004820152601a60248201527f4e6f74206120706172747920746f207468697320657363726f77000000000000604482015260640161046c565b5f600682015460ff1660038111156110cb576110cb61136a565b146110e85760405162461bcd60e51b815260040161046c90611725565b60068101805460ff1916600317905560405182907f7ce7831fed9a800b1aa5e7ca21034bf7b95efc31a196459012cf8b8eb42b7dac905f90a25050565b6001600160a01b0381165f9081526006602090815260409182902080548351818402810184019094528084526060939283018282801561043657602002820191905f5260205f20908154815260200190600101908083116104225750505050509050919050565b6006602052815f5260405f208181548110610506575f80fd5b600254600160a01b900460ff16156111cf5760405162461bcd60e51b815260040161046c906116f9565b5f81815260046020526040902060018101546001600160a01b0316331461122c5760405162461bcd60e51b81526020600482015260116024820152702737ba103a3432903232b837b9b4ba37b960791b604482015260640161046c565b5f600682015460ff1660038111156112465761124661136a565b146112635760405162461bcd60e51b815260040161046c90611725565b60068101805460ff191660011790555f546002820154600383015460405163a9059cbb60e01b81526001600160a01b039283166004820152602481019190915291169063a9059cbb906044016020604051808303815f875af11580156112cb573d5f5f3e3d5ffd5b505050506040513d601f19601f820116820180604052508101906112ef91906116af565b61130b5760405162461bcd60e51b815260040161046c906116ca565b600281015460038201546040519081526001600160a01b039091169083907f6244ed823ca6be0f11bc890c3fafcf3c29cb23420c14243642e930b5e07e6d0a906020016109c9565b5f60208284031215611363575f5ffd5b5035919050565b634e487b7160e01b5f52602160045260245ffd5b6004811061139a57634e487b7160e01b5f52602160045260245ffd5b9052565b5f81518084528060208401602086015e5f602082860101526020601f19601f83011685010191505092915050565b8881526001600160a01b03888116602083015287166040820152606081018690526080810185905260a0810184905261140860c082018461137e565b61010060e08201525f61141f61010083018461139e565b9a9950505050505050505050565b80356001600160a01b0381168114611443575f5ffd5b919050565b5f60208284031215611458575f5ffd5b6114618261142d565b9392505050565b602080825282518282018190525f918401906040840190835b8181101561149f578351835260209384019390920191600101611481565b509095945050505050565b5f5f604083850312156114bb575f5ffd5b6114c48361142d565b946020939093013593505050565b80151581146114df575f5ffd5b50565b5f5f604083850312156114f3575f5ffd5b823591506020830135611505816114d2565b809150509250929050565b634e487b7160e01b5f52604160045260245ffd5b5f5f5f5f60808587031215611537575f5ffd5b6115408561142d565b93506020850135925060408501359150606085013567ffffffffffffffff811115611569575f5ffd5b8501601f81018713611579575f5ffd5b803567ffffffffffffffff81111561159357611593611510565b604051601f8201601f19908116603f0116810167ffffffffffffffff811182821017156115c2576115c2611510565b6040528181528282016020018910156115d9575f5ffd5b816020840160208301375f6020838301015280935050505092959194509250565b6001600160a01b0388811682528716602082015260408101869052611622606082018661137e565b8360808201528260a082015260e060c08201525f61164360e083018461139e565b9998505050505050505050565b600181811c9082168061166457607f821691505b60208210810361168257634e487b7160e01b5f52602260045260245ffd5b50919050565b6020808252600d908201526c2737ba103a34329037bbb732b960991b604082015260600190565b5f602082840312156116bf575f5ffd5b8151611461816114d2565b602080825260159082015274151bdad95b881d1c985b9cd9995c8819985a5b1959605a1b604082015260600190565b60208082526012908201527110dbdb9d1c9858dd081a5cc81c185d5cd95960721b604082015260600190565b602080825260119082015270457363726f77206e6f742061637469766560781b604082015260600190565b634e487b7160e01b5f52601160045260245ffd5b5f6001820161177557611775611750565b5060010190565b601f8211156117c357805f5260205f20601f840160051c810160208510156117a15750805b601f840160051c820191505b818110156117c0575f81556001016117ad565b50505b505050565b815167ffffffffffffffff8111156117e2576117e2611510565b6117f6816117f08454611650565b8461177c565b6020601f821160018114611828575f83156118115750848201515b5f19600385901b1c1916600184901b1784556117c0565b5f84815260208120601f198516915b828110156118575787850151825560209485019460019092019101611837565b508482101561187457868401515f19600387901b60f8161c191681555b50505050600190811b01905550565b8082018082111561189657611896611750565b9291505056fea2646970667358221220a34c38ddc497e96d9675feed92a941b882395d89caabb6f38ea13576e091c9fc64736f6c634300081e0033",
  "linkReferences": {},
  "deployedLinkReferences": {},
  "immutableReferences": {},
  "inputSourceName": "project/contracts/EscrowManager.sol",
  "buildInfoId": "solc-0_8_30-95720882c523173cd13f8c831f71d92acfbe63f2"
}