{
  "_format": "hh3-artifact-1",
  "contractName": "BountyBoard",
  "sourceName": "contracts/BountyBoard.sol",
  "abi": [
    {
      "inputs": [
        {
          "internalType": "address",
          "name": "_tokenAddress",
          "type": "address"
        },
        {
          "internalType": "address",
          "name": "_nftAddress",
          "type": "address"
        }
      ],
      "stateMutability": "nonpayable",
      "type": "constructor"
    },
    {
      "anonymous": false,
      "inputs": [
        {
          "indexed": true,
          "internalType": "uint256",
          "name": "bountyId",
          "type": "uint256"
        }
      ],
      "name": "BountyCancelled",
      "type": "event"
    },
    {
      "anonymous": false,
      "inputs": [
        {
          "indexed": true,
          "internalType": "uint256",
          "name": "bountyId",
          "type": "uint256"
        },
        {
          "indexed": true,
          "internalType": "address",
          "name": "helper",
          "type": "address"
        }
      ],
      "name": "BountyClaimed",
      "type": "event"
    },
    {
      "anonymous": false,
      "inputs": [
        {
          "indexed": true,
          "internalType": "uint256",
          "name": "bountyId",
          "type": "uint256"
        },
        {
          "indexed": true,
          "internalType": "address",
          "name": "helper",
          "type": "address"
        },
        {
          "indexed": false,
          "internalType": "uint256",
          "name": "reward",
          "type": "uint256"
        }
      ],
      "name": "BountyCompleted",
      "type": "event"
    },
    {
      "anonymous": false,
      "inputs": [
        {
          "indexed": true,
          "internalType": "uint256",
          "name": "bountyId",
          "type": "uint256"
        },
        {
          "indexed": true,
          "internalType": "address",
          "name": "requester",
          "type": "address"
        },
        {
          "indexed": false,
          "internalType": "uint256",
          "name": "reward",
          "type": "uint256"
        },
        {
          "indexed": false,
          "internalType": "enum BountyBoard.Category",
          "name": "category",
          "type": "uint8"
        }
      ],
      "name": "BountyCreated",
      "type": "event"
    },
    {
      "anonymous": false,
      "inputs": [
        {
          "indexed": true,
          "internalType": "uint256",
          "name": "bountyId",
          "type": "uint256"
        },
        {
          "indexed": false,
          "internalType": "string",
          "name": "submissionUrl",
          "type": "string"
        }
      ],
      "name": "BountySubmitted",
      "type": "event"
    },
    {
      "inputs": [
        {
          "internalType": "uint256",
          "name": "bountyId",
          "type": "uint256"
        }
      ],
      "name": "approveSolution",
      "outputs": [],
      "stateMutability": "nonpayable",
      "type": "function"
    },
    {
      "inputs": [
        {
          "internalType": "uint256",
          "name": "",
          "type": "uint256"
        }
      ],
      "name": "bounties",
      "outputs": [
        {
          "internalType": "uint256",
          "name": "id",
          "type": "uint256"
        },
        {
          "internalType": "address",
          "name": "requester",
          "type": "address"
        },
        {
          "internalType": "address",
          "name": "helper",
          "type": "address"
        },
        {
          "internalType": "string",
          "name": "description",
          "type": "string"
        },
        {
          "internalType": "uint256",
          "name": "reward",
          "type": "uint256"
        },
        {
          "internalType": "enum BountyBoard.Category",
          "name": "category",
          "type": "uint8"
        },
        {
          "internalType": "enum BountyBoard.Status",
          "name": "status",
          "type": "uint8"
        },
        {
          "internalType": "uint256",
          "name": "createdAt",
          "type": "uint256"
        },
        {
          "internalType": "string",
          "name": "submissionUrl",
          "type": "string"
        }
      ],
      "stateMutability": "view",
      "type": "function"
    },
    {
      "inputs": [],
      "name": "bountyToken",
      "outputs": [
        {
          "internalType": "contract IERC20",
          "name": "",
          "type": "address"
        }
      ],
      "stateMutability": "view",
      "type": "function"
    },
    {
      "inputs": [
        {
          "internalType": "uint256",
          "name": "bountyId",
          "type": "uint256"
        }
      ],
      "name": "cancelBounty",
      "outputs": [],
      "stateMutability": "nonpayable",
      "type": "function"
    },
    {
      "inputs": [
        {
          "internalType": "uint256",
          "name": "bountyId",
          "type": "uint256"
        }
      ],
      "name": "claimBounty",
      "outputs": [],
      "stateMutability": "nonpayable",
      "type": "function"
    },
    {
      "inputs": [
        {
          "internalType": "string",
          "name": "description",
          "type": "string"
        },
        {
          "internalType": "uint256",
          "name": "reward",
          "type": "uint256"
        },
        {
          "internalType": "enum BountyBoard.Category",
          "name": "category",
          "type": "uint8"
        }
      ],
      "name": "createBounty",
      "outputs": [
        {
          "internalType": "uint256",
          "name": "",
          "type": "uint256"
        }
      ],
      "stateMutability": "nonpayable",
      "type": "function"
    },
    {
      "inputs": [
        {
          "internalType": "uint256",
          "name": "bountyId",
          "type": "uint256"
        }
      ],
      "name": "getBounty",
      "outputs": [
        {
          "internalType": "address",
          "name": "requester",
          "type": "address"
        },
        {
          "internalType": "address",
          "name": "helper",
          "type": "address"
        },
        {
          "internalType": "string",
          "name": "description",
          "type": "string"
        },
        {
          "internalType": "uint256",
          "name": "reward",
          "type": "uint256"
        },
        {
          "internalType": "enum BountyBoard.Category",
          "name": "category",
          "type": "uint8"
        },
        {
          "internalType": "enum BountyBoard.Status",
          "name": "status",
          "type": "uint8"
        },
        {
          "internalType": "string",
          "name": "submissionUrl",
          "type": "string"
        }
      ],
      "stateMutability": "view",
      "type": "function"
    },
    {
      "inputs": [],
      "name": "getEscrowBalance",
      "outputs": [
        {
          "internalType": "uint256",
          "name": "",
          "type": "uint256"
        }
      ],
      "stateMutability": "view",
      "type": "function"
    },
    {
      "inputs": [
        {
          "internalType": "address",
          "name": "helper",
          "type": "address"
        }
      ],
      "name": "getHelperBounties",
      "outputs": [
        {
          "internalType": "uint256[]",
          "name": "",
          "type": "uint256[]"
        }
      ],
      "stateMutability": "view",
      "type": "function"
    },
    {
      "inputs": [],
      "name": "getOpenBounties",
      "outputs": [
        {
          "internalType": "uint256[]",
          "name": "",
          "type": "uint256[]"
        }
      ],
      "stateMutability": "view",
      "type": "function"
    },
    {
      "inputs": [
        {
          "internalType": "address",
          "name": "user",
          "type": "address"
        }
      ],
      "name": "getUserBounties",
      "outputs": [
        {
          "internalType": "uint256[]",
          "name": "",
          "type": "uint256[]"
        }
      ],
      "stateMutability": "view",
      "type": "function"
    },
    {
      "inputs": [
        {
          "internalType": "address",
          "name": "",
          "type": "address"
        },
        {
          "internalType": "uint256",
          "name": "",
          "type": "uint256"
        }
      ],
      "name": "helperBounties",
      "outputs": [
        {
          "internalType": "uint256",
          "name": "",
          "type": "uint256"
        }
      ],
      "stateMutability": "view",
      "type": "function"
    },
    {
      "inputs": [],
      "name": "nextBountyId",
      "outputs": [
        {
          "internalType": "uint256",
          "name": "",
          "type": "uint256"
        }
      ],
      "stateMutability": "view",
      "type": "function"
    },
    {
      "inputs": [],
      "name": "owner",
      "outputs": [
        {
          "internalType": "address",
          "name": "",
          "type": "address"
        }
      ],
      "stateMutability": "view",
      "type": "function"
    },
    {
      "inputs": [
        {
          "internalType": "uint256",
          "name": "bountyId",
          "type": "uint256"
        },
        {
          "internalType": "string",
          "name": "reason",
          "type": "string"
        }
      ],
      "name": "rejectSolution",
      "outputs": [],
      "stateMutability": "nonpayable",
      "type": "function"
    },
    {
      "inputs": [],
      "name": "reputationNFT",
      "outputs": [
        {
          "internalType": "contract IERC721",
          "name": "",
          "type": "address"
        }
      ],
      "stateMutability": "view",
      "type": "function"
    },
    {
      "inputs": [
        {
          "internalType": "uint256",
          "name": "bountyId",
          "type": "uint256"
        },
        {
          "internalType": "string",
          "name": "submissionUrl",
          "type": "string"
        }
      ],
      "name": "submitSolution",
      "outputs": [],
      "stateMutability": "nonpayable",
      "type": "function"
    },
    {
      "inputs": [
        {
          "internalType": "address",
          "name": "",
          "type": "address"
        },
        {
          "internalType": "uint256",
          "name": "",
          "type": "uint256"
        }
      ],
      "name": "userBounties",
      "outputs": [
        {
          "internalType": "uint256",
          "name": "",
          "type": "uint256"
        }
      ],
      "stateMutability": "view",
      "type": "function"
    }
  ],
  "bytecode": "0x608060405260016003553480156013575f5ffd5b50604051611b37380380611b378339810160408190526030916089565b5f80546001600160a01b039384166001600160a01b031991821617909155600180549290931691811691909117909155600280549091163317905560b5565b80516001600160a01b03811681146084575f5ffd5b919050565b5f5f604083850312156099575f5ffd5b60a083606f565b915060ac60208401606f565b90509250929050565b611a75806100c25f395ff3fe608060405234801561000f575f5ffd5b5060043610610111575f3560e01c80639846f8e21161009e578063dc2f87441161006e578063dc2f87441461022f578063e5e5dff114610257578063ee8c4bbf1461026a578063fa48864914610290578063fd14fad4146102a3575f5ffd5b80639846f8e2146101ee5780639c1b979914610201578063c56e610e14610214578063d3b5c0161461021c575f5ffd5b806349c0c190116100e457806349c0c1901461018d5780636359826c146101a25780636591a185146101b557806370a8d221146101c85780638da5cb5b146101db575f5ffd5b80632b9234b9146101155780632d4147e31461013b57806344021ad714610165578063480f81b31461017a575b5f5ffd5b610128610123366004611441565b6102ac565b6040519081526020015b60405180910390f35b5f5461014d906001600160a01b031681565b6040516001600160a01b039091168152602001610132565b610178610173366004611469565b6102d7565b005b610128610188366004611441565b61041b565b610195610434565b6040516101329190611480565b6101286101b0366004611561565b61054c565b6101956101c33660046115bb565b61086d565b6101956101d63660046115bb565b6108d6565b60025461014d906001600160a01b031681565b6101786101fc366004611469565b61093d565b61017861020f3660046115db565b610bc6565b610128610ce8565b61017861022a3660046115db565b610d57565b61024261023d366004611469565b610edc565b60405161013299989796959493929190611680565b610178610265366004611469565b611048565b61027d610278366004611469565b6111f0565b60405161013297969594939291906116ff565b60015461014d906001600160a01b031681565b61012860035481565b6005602052815f5260405f2081815481106102c5575f80fd5b905f5260205f20015f91509150505481565b5f818152600460205260408120906005820154610100900460ff1660048111156103035761030361164d565b146103475760405162461bcd60e51b815260206004820152600f60248201526e2137bab73a3c903737ba1037b832b760891b60448201526064015b60405180910390fd5b6001810154336001600160a01b03909116036103a55760405162461bcd60e51b815260206004820152601760248201527f43616e6e6f7420636c61696d206f776e20626f756e7479000000000000000000604482015260640161033e565b6002810180546001600160a01b0319163390811790915560058201805461ff0019166101001790555f81815260066020908152604080832080546001810182559084529183209091018590555184917fbf59c0d059a57ebf273b4b1643599fc4b48cf5effdd82113a740ed64d262ec9391a35050565b6006602052815f5260405f2081815481106102c5575f80fd5b60605f60015b60035481101561048a575f818152600460208190526040822060050154610100900460ff169081111561046f5761046f61164d565b03610482578161047e8161176e565b9250505b60010161043a565b505f8167ffffffffffffffff8111156104a5576104a56114c2565b6040519080825280602002602001820160405280156104ce578160200160208202803683370190505b5090505f60015b600354811015610543575f818152600460208190526040822060050154610100900460ff169081111561050a5761050a61164d565b0361053b578083838151811061052257610522611792565b6020908102919091010152816105378161176e565b9250505b6001016104d5565b50909392505050565b5f5f8451116105945760405162461bcd60e51b815260206004820152601460248201527311195cd8dc9a5c1d1a5bdb881c995c5d5a5c995960621b604482015260640161033e565b5f83116105e35760405162461bcd60e51b815260206004820152601d60248201527f526577617264206d7573742062652067726561746572207468616e2030000000604482015260640161033e565b5f546040516323b872dd60e01b8152336004820152306024820152604481018590526001600160a01b03909116906323b872dd906064016020604051808303815f875af1158015610636573d5f5f3e3d5ffd5b505050506040513d601f19601f8201168201806040525081019061065a91906117a6565b61069e5760405162461bcd60e51b8152602060048201526015602482015274151bdad95b881d1c985b9cd9995c8819985a5b1959605a1b604482015260640161033e565b600380545f91826106ae8361176e565b919050559050604051806101200160405280828152602001336001600160a01b031681526020015f6001600160a01b031681526020018681526020018581526020018460048111156107025761070261164d565b81526020015f8152426020808301919091526040805180830182525f80825293820152848352600482529182902083518155908301516001820180546001600160a01b03199081166001600160a01b039384161790915592840151600283018054909416911617909155606082015160038201906107809082611849565b506080820151816004015560a0820151816005015f6101000a81548160ff021916908360048111156107b4576107b461164d565b021790555060c082015160058201805461ff0019166101008360048111156107de576107de61164d565b021790555060e0820151600682015561010082015160078201906108029082611849565b5050335f818152600560209081526040808320805460018101825590845291909220018490555190915082907f4d90dfff99bcd582dd8c7502b37e53bacdb3f8f07422571bf4adcc5e90b5b5479061085d9088908890611904565b60405180910390a3949350505050565b6001600160a01b0381165f908152600560209081526040918290208054835181840281018401909452808452606093928301828280156108ca57602002820191905f5260205f20905b8154815260200190600101908083116108b6575b50505050509050919050565b6001600160a01b0381165f908152600660209081526040918290208054835181840281018401909452808452606093928301828280156108ca57602002820191905f5260205f20908154815260200190600101908083116108b65750505050509050919050565b5f81815260046020526040902060018101546001600160a01b031633146109765760405162461bcd60e51b815260040161033e90611921565b60026005820154610100900460ff1660048111156109965761099661164d565b146109db5760405162461bcd60e51b8152602060048201526015602482015274139bc81cdbdb1d5d1a5bdb881cdd589b5a5d1d1959605a1b604482015260640161033e565b60058101805461030061ff00199091161790555f54600282015460048084015460405163a9059cbb60e01b81526001600160a01b0393841692810192909252602482015291169063a9059cbb906044016020604051808303815f875af1158015610a47573d5f5f3e3d5ffd5b505050506040513d601f19601f82011682018060405250810190610a6b91906117a6565b610ab75760405162461bcd60e51b815260206004820152601760248201527f5061796d656e74207472616e73666572206661696c6564000000000000000000604482015260640161033e565b5f81600301604051602001610acc919061194c565b60408051808303601f19018152919052600154600284015460058501549293506001600160a01b039182169263c7b6e30d929091169060ff166004811115610b1657610b1661164d565b846040518463ffffffff1660e01b8152600401610b35939291906119e1565b6020604051808303815f875af1158015610b51573d5f5f3e3d5ffd5b505050506040513d601f19601f82011682018060405250810190610b759190611a16565b50600282015460048301546040519081526001600160a01b039091169084907f285d0f935b4d6592b80efc46cc3d9eb3e93e27fe245f0a6c2b5b9a9d04800ee79060200160405180910390a3505050565b5f82815260046020526040902060018101546001600160a01b03163314610bff5760405162461bcd60e51b815260040161033e90611921565b60026005820154610100900460ff166004811115610c1f57610c1f61164d565b14610c645760405162461bcd60e51b8152602060048201526015602482015274139bc81cdbdb1d5d1a5bdb881cdd589b5a5d1d1959605a1b604482015260640161033e565b5f825111610cb45760405162461bcd60e51b815260206004820152601960248201527f52656a656374696f6e20726561736f6e20726571756972656400000000000000604482015260640161033e565b60058101805461ff00191661010017905560408051602081019091525f81526007820190610ce29082611849565b50505050565b5f80546040516370a0823160e01b81523060048201526001600160a01b03909116906370a0823190602401602060405180830381865afa158015610d2e573d5f5f3e3d5ffd5b505050506040513d601f19601f82011682018060405250810190610d529190611a16565b905090565b5f82815260046020526040902060028101546001600160a01b03163314610dc05760405162461bcd60e51b815260206004820152601760248201527f4e6f74207468652061737369676e65642068656c706572000000000000000000604482015260640161033e565b60016005820154610100900460ff166004811115610de057610de061164d565b14610e2d5760405162461bcd60e51b815260206004820152601b60248201527f426f756e7479206e6f7420696e20636c61696d65642073746174650000000000604482015260640161033e565b5f825111610e7d5760405162461bcd60e51b815260206004820152601760248201527f5375626d697373696f6e2055524c207265717569726564000000000000000000604482015260640161033e565b60078101610e8b8382611849565b5060058101805461ff00191661020017905560405183907f2195f567a95bef162b596637212e7ece92a3d934b5924ef48b543fe42bdfa89c90610ecf908590611a2d565b60405180910390a2505050565b60046020525f9081526040902080546001820154600283015460038401805493946001600160a01b03938416949390921692610f17906117c5565b80601f0160208091040260200160405190810160405280929190818152602001828054610f43906117c5565b8015610f8e5780601f10610f6557610100808354040283529160200191610f8e565b820191905f5260205f20905b815481529060010190602001808311610f7157829003601f168201915b505050506004830154600584015460068501546007860180549596939560ff8085169650610100909404909316939192610fc7906117c5565b80601f0160208091040260200160405190810160405280929190818152602001828054610ff3906117c5565b801561103e5780601f106110155761010080835404028352916020019161103e565b820191905f5260205f20905b81548152906001019060200180831161102157829003601f168201915b5050505050905089565b5f81815260046020526040902060018101546001600160a01b031633146110815760405162461bcd60e51b815260040161033e90611921565b5f6005820154610100900460ff1660048111156110a0576110a061164d565b146110ed5760405162461bcd60e51b815260206004820152601d60248201527f43616e206f6e6c792063616e63656c206f70656e20626f756e74696573000000604482015260640161033e565b60058101805461040061ff00199091161790555f54600182015460048084015460405163a9059cbb60e01b81526001600160a01b0393841692810192909252602482015291169063a9059cbb906044016020604051808303815f875af1158015611159573d5f5f3e3d5ffd5b505050506040513d601f19601f8201168201806040525081019061117d91906117a6565b6111c25760405162461bcd60e51b81526020600482015260166024820152751499599d5b99081d1c985b9cd9995c8819985a5b195960521b604482015260640161033e565b60405182907f92717314c0b0f9d632e1d46a0b8437778ff9daee1db8ec295f2bc0b57c4bcaac905f90a25050565b5f8181526004602090815260408083208151610120810183528154815260018201546001600160a01b03908116948201949094526002820154909316918301919091526003810180548493606093859384938493879385939192909183860191611259906117c5565b80601f0160208091040260200160405190810160405280929190818152602001828054611285906117c5565b80156112d05780601f106112a7576101008083540402835291602001916112d0565b820191905f5260205f20905b8154815290600101906020018083116112b357829003601f168201915b50505091835250506004828101546020830152600583015460409092019160ff16908111156113015761130161164d565b60048111156113125761131261164d565b81526020016005820160019054906101000a900460ff16600481111561133a5761133a61164d565b600481111561134b5761134b61164d565b815260200160068201548152602001600782018054611369906117c5565b80601f0160208091040260200160405190810160405280929190818152602001828054611395906117c5565b80156113e05780601f106113b7576101008083540402835291602001916113e0565b820191905f5260205f20905b8154815290600101906020018083116113c357829003601f168201915b50505091909252505050602081015160408201516060830151608084015160a085015160c086015161010090960151949f939e50919c509a509850919650945092505050565b80356001600160a01b038116811461143c575f5ffd5b919050565b5f5f60408385031215611452575f5ffd5b61145b83611426565b946020939093013593505050565b5f60208284031215611479575f5ffd5b5035919050565b602080825282518282018190525f918401906040840190835b818110156114b7578351835260209384019390920191600101611499565b509095945050505050565b634e487b7160e01b5f52604160045260245ffd5b5f82601f8301126114e5575f5ffd5b813567ffffffffffffffff8111156114ff576114ff6114c2565b604051601f8201601f19908116603f0116810167ffffffffffffffff8111828210171561152e5761152e6114c2565b604052818152838201602001851015611545575f5ffd5b816020850160208301375f918101602001919091529392505050565b5f5f5f60608486031215611573575f5ffd5b833567ffffffffffffffff811115611589575f5ffd5b611595868287016114d6565b935050602084013591506040840135600581106115b0575f5ffd5b809150509250925092565b5f602082840312156115cb575f5ffd5b6115d482611426565b9392505050565b5f5f604083850312156115ec575f5ffd5b82359150602083013567ffffffffffffffff811115611609575f5ffd5b611615858286016114d6565b9150509250929050565b5f81518084528060208401602086015e5f602082860101526020601f19601f83011685010191505092915050565b634e487b7160e01b5f52602160045260245ffd5b6005811061167d57634e487b7160e01b5f52602160045260245ffd5b50565b8981526001600160a01b03898116602083015288166040820152610120606082018190525f906116b29083018961161f565b8760808401526116c187611661565b8660a08401526116d086611661565b8560c08401528460e08401528281036101008401526116ef818561161f565b9c9b505050505050505050505050565b6001600160a01b0388811682528716602082015260e0604082018190525f9061172a9083018861161f565b86606084015261173986611661565b85608084015261174885611661565b8460a084015282810360c0840152611760818561161f565b9a9950505050505050505050565b5f6001820161178b57634e487b7160e01b5f52601160045260245ffd5b5060010190565b634e487b7160e01b5f52603260045260245ffd5b5f602082840312156117b6575f5ffd5b815180151581146115d4575f5ffd5b600181811c908216806117d957607f821691505b6020821081036117f757634e487b7160e01b5f52602260045260245ffd5b50919050565b601f82111561184457805f5260205f20601f840160051c810160208510156118225750805b601f840160051c820191505b81811015611841575f815560010161182e565b50505b505050565b815167ffffffffffffffff811115611863576118636114c2565b6118778161187184546117c5565b846117fd565b6020601f8211600181146118a9575f83156118925750848201515b5f19600385901b1c1916600184901b178455611841565b5f84815260208120601f198516915b828110156118d857878501518255602094850194600190920191016118b8565b50848210156118f557868401515f19600387901b60f8161c191681555b50505050600190811b01905550565b8281526040810161191483611661565b8260208301529392505050565b6020808252601190820152702737ba103a3432903932b8bab2b9ba32b960791b604082015260600190565b71021b7b6b83632ba32b2103137bab73a3c9d160751b81525f5f8354611971816117c5565b60018216801561198857600181146119a3576119d6565b60ff19831660128701526012821515830287010193506119d6565b865f5260205f205f5b838110156119cb578154888201601201526001909101906020016119ac565b505060128287010193505b509195945050505050565b6001600160a01b038416815260ff831660208201526060604082018190525f90611a0d9083018461161f565b95945050505050565b5f60208284031215611a26575f5ffd5b5051919050565b602081525f6115d4602083018461161f56fea26469706673582212203827ca1722b857abaa44ecd8a6a2cc9e8af35a30b720f1620a56e64bff4b506c64736f6c634300081e0033",
  "linkReferences": {},
  "deployedLinkReferences": {},
  "immutableReferences": {},
  "inputSourceName": "project/contracts/BountyBoard.sol",
  "buildInfoId": "solc-0_8_30-77a59af3824eb197bb62c9e4ffa44795d29d2217"
}